:1000000000800020BD010000E1250000A5250000C2
:10001000A5250000A5250000A5250000A5250000B8
:10002000A5250000A5250000A5250000E12500006C
:10003000E1250000A5250000E12500009525000030
:10004000E1250000E1250000E1250000E125000098
:10005000E1250000E1250000E1250000E125000088
:10006000E1250000E1250000E1250000E125000078
:10007000E1250000E1250000E1250000E125000068
:10008000E1250000E1250000E1250000E125000058
:10009000E1250000E1250000E1250000E125000048
:1000A000E1250000E1250000E1250000E125000038
:1000B000E1250000E1250000E1250000E125000028
:1000C000E1250000E1250000E1250000E125000018
:1000D000E1250000E1250000E1250000E125000008
:1000E000E1250000E1250000E1250000E1250000F8
:1000F000E1250000493F0000E1250000AD46000079
:10010000E1250000294C0000E1250000E125000068
:10011000E1250000E1250000E1250000E1250000C7
:10012000E1250000E1250000E1250000E1250000B7
:10013000E1250000E1250000E1250000E1250000A7
:10014000E1250000E1250000E1250000E125000097
:10015000E1250000E1250000E1250000E125000087
:10016000E1250000292B0000E1250000E125000029
:10017000E1250000E1250000E1250000E125000067
:10018000E1250000E1250000E1250000E125000057
:10019000E1250000E1250000E1250000E125000047
:1001A000E1250000E1250000E1250000E125000037
:1001B000E1250000E1250000E1250000574B4CF24D
:1001C000205210B51A804DF628121A8000BF00BFC9
:1001D00002F00AFA524B4FF010621A60514A9A60CC
:1001E000514ADA60A3F53043203B1A6812F480725A
:1001F00004D14E490A604FF4A8521A604C4B1A7849
:10020000110703D51A7842F008021A70494B4A4C7C
:100210004A482A221A704A4A00239918A14203D256
:10022000195899500433F8E7464B474900228B424E
:1002300002D243F8042BFAE74448454900235A58B0
:100240001A500433B3F5DE7FF9D1424B424A802184
:1002500003F8011B9342FBD1404B3C4A1A60404BD0
:100260008A221A70A3F5805324225A70A0221A7091
:100270009A799207FCD59A79D406FCD4394A9379B5
:1002800003F00C03082B374BF9D103221A714022DB
:100290005A719A799006FCD5324A9179314B4906C8
:1002A000FBD5314A314911600221516020221A7078
:1002B0009A7902F00C020C2AFAD12D4B2D4A1A60C1
:1002C0002D4B2E4A1A6000225A60072243F8042C54
:1002D0002B4AC3F80C2D62B602F0E6FA134B1B68EA
:1002E000DA0705D5274802F0B3F9274B274A1A60E9
:1002F000274B1B785B0609D5234C244A236893427D
:1003000004D1204802F0A4F90023236005F08AFEFE
:1003100002F070F903F098F9FEE700BF0E200540E7
:1003200030800440823F04000100002B14D00340C1
:1003300002D0074000E00740B492FF1F58A9000018
:100340006087FF1FB892FF1F249BFF1F0082FF1FC3
:100350000000000000E400E05FE400E008ED00E0E1
:100360000050064000400640448004400000030165
:1003700004800440C010050014E000E0FF76010096
:10038000000020202988A6591CE00340A5C3945AE8
:1003900000F00740FFFFFFFFFFFFFFFFFFFFFFFF32
:1003A000FFFFFFFFFFFFFFFFFFFFFFFFFFFFFFFF5D
:1003B000FFFFFFFFFFFFFFFFFFFFFFFFFFFFFFFF4D
:1003C000FFFFFFFFFFFFFFFFFFFFFFFFFFFFFFFF3D
:1003D000FFFFFFFFFFFFFFFFFFFFFFFFFFFFFFFF2D
:1003E000FFFFFFFFFFFFFFFFFFFFFFFFFFFFFFFF1D
:1003F000FFFFFFFFFFFFFFFFFFFFFFFFFFFFFFFF0D
:10040000FFFFFFFFFFFFFFFFFFFFFFFFDEF9FFFF23
:1004100010B5054C237833B9044B13B10448AFF33E
:1004200000800123237010BDB892FF1F0000000060
:1004300050A9000008B5064B1BB106480649AFF3AA
:1004400000800648036813B1054B03B1984708BD07
:100450000000000050A90000BC92FF1FB492FF1FD3
:1004600000000000FFFFFFFF10B50446084B1868AE
:1004700005F012F804A3D3E9002305F0ADF9C4E9AF
:10048000000110BDAFF300800000000080842E4109
:10049000A488FF1FAFF30080704700BF08B5C36F8B
:1004A0000BB12830984708BD4068704710B5044626
:1004B00003E02368DB692046984723681B682046D1
:1004C00098470028F5DC10BD10B504460348044BDE
:1004D000198801F083FCC4E9000110BD4097FF1F9B
:1004E0004488FF1F10B504460348044B198801F0E7
:1004F00075FCC4E9000110BD4097FF1FA088FF1FD5
:1005000010B504460348044B198801F067FCC4E9A0
:10051000000110BD4097FF1FC094FF1F30B583B08E
:100520000546094CD0E9002301210091204601F045
:10053000D7FD02460B46C5E90023204601F060FCCA
:10054000024B188003B030BD4097FF1F4488FF1F47
:1005500030B583B00546094CD0E900230021009155
:10056000204601F0BDFD02460B46C5E900232046AA
:1005700001F046FC024B188003B030BD4097FF1FCE
:10058000A088FF1F38B50446094D2846D4E900234A
:1005900001F036FC2988814228BF014689B2054B0B
:1005A00019802846A98001F019FCC4E9000138BD72
:1005B0004097FF1FC094FF1F70B50646D0E9004565
:1005C000204629460022002305F04EFA48B920466D
:1005D00029460022164B05F065FA28B1002014497F
:1005E00004E00020002101E020462946C6E9000180
:1005F0000DA3D3E9002304F0C5FF05F085FA0146F9
:100600000C4C20600C48002201F0EEFE206804F043
:1006100043FF05A3D3E9002305F0DEF8C6E9000196
:1006200070BD00BFAFF300800000000080842E4149
:1006300000007940A488FF1FC894FF1FAFF300801B
:1006400010B5064C20460649192201F04DFE204601
:10065000044B1968002201F0C7FE10BDC894FF1FAB
:10066000005A6202A488FF1F30B583B0104C4FF6C9
:10067000FF750095204600212A460B4601F0CCFC70
:100680000C4B1988009520464CF6CC42002301F013
:10069000C3FC2046084B1988002201F009FD2046C2
:1006A000064B1988012201F003FD03B030BD00BFE5
:1006B0004097FF1FC094FF1FA088FF1F4488FF1FA3
:1006C00010B504462B39252967D8DFE801F01366F9
:1006D0002C666666666666666666666666666666F4
:1006E00066666666666666666666665E66666666B2
:1006F0006666664590F8682090F86930B2FBF3F1C1
:1007000003FB1123DBB2416E01EBC303D0E90A0105
:10071000D3E9002304F084FDC4E90A0123689B683F
:100720002046984710BD90F8682090F86930B2FBD9
:10073000F3F103FB1123DBB2416E01EBC303D0E9FC
:100740000A01D3E9002304F069FDC4E90A01236822
:100750009B682046984710BD90F868300133DBB2A3
:1007600080F8683090F86920B3FBF2F102FB113396
:10077000DBB2C16EC95C90F870301944006AC9B22E
:1007800094F8712000F0F4FE10BD03685B68984790
:10079000606810B103681B68984710BD10B5044627
:1007A000836F0BB128309847206A94F8701094F842
:1007B000712000F0DDFE206A04F15201D4E90A2321
:1007C00002F034FF94F8682094F86930B2FBF3F13A
:1007D00003FB1123DBB2E16EC95C94F8703019445D
:1007E000206AC9B294F8712000F0C2FE10BD00BFAB
:1007F00038B504460D46082002F02EFF0023436062
:100800000560A3681BB1E3685860E06001E0A06088
:10081000E06063680133636000232376012038BD04
:1008200038B504460D4643681BB903689B68984772
:1008300038BD082002F010FF002303604360A26867
:1008400042600560A0606268013262602376012028
:1008500038BD00BF70B504464368002B12DD012B84
:100860000CDD80684668056802F0FEFEA6606368DD
:10087000013B636000232376284670BD03689B69B3
:10088000984770BD002070BD70B50446436F0BB132
:1008900028309847206A00210A4600F069FE266A3F
:1008A00004F13005284606F095F9024633685B6886
:1008B000304629469847206A0021012200F058FE60
:1008C000266A04F14105284606F084F90246336899
:1008D0005B6830462946984723689B6820469847BE
:1008E00070BD00BF2DE9F0410F4B1A6897685A6838
:1008F00095689B689B68002B13DD0024DFF8288037
:100900003E5D284601F00EFE864203D02846314661
:1009100001F01EFE01340135D8F808309B689C4276
:10092000EEDBBDE8F08100BF2096FF1F2DE9F0410E
:100930002C4B1A6817685A6815689B681B68002B4F
:1009400013DD0024DFF89C803E5D284601F0EAFDBF
:10095000864203D02846314601F0FAFD01340135C4
:10096000D8F808301B689C42EEDB1E4B1A685768AB
:100970005A6855689B685B68002B13DD0024DFF81C
:1009800064803E5D284601F0CDFD864203D02846B6
:10099000314601F0DDFD01340135D8F808305B68DF
:1009A0009C42EEDB0F4B1A68D7685A68D5689B6883
:1009B000DB68002B13DD0024DFF828803E5D28462D
:1009C00001F0B0FD864203D02846314601F0C0FD5B
:1009D00001340135D8F80830DB689C42EEDBBDE815
:1009E000F08100BF2096FF1FF0B404460D462D4B4A
:1009F00003604B6843608B68836000F10C0601F173
:100A00000C070FCF0FC63B6833702B6A2362264B4F
:100A10002360D5E90A23C4E90A2304F1300605F16D
:100A200030070FCF0FC63B6833702B4653F8417F1A
:100A30005E689868D968C4F84170C4F84560C4F825
:100A40004900C4F84D101B7C84F851302B4653F8F4
:100A5000526F58689968DB68C4F85260C4F8560051
:100A6000C4F85A10C4F85E306B6E636695F868304F
:100A700084F8683095F8693084F86930EB6EE36685
:100A800095F8703084F8703095F8713084F87130D2
:100A90006B6F6367AB6FA367EB6FE3672046F0BCD8
:100AA000704700BF60A40000B0A20000F8B5044683
:100AB00000F070FF2646154B46F8303BDFF850C07B
:100AC00065460FCD20637160B260F3602F78377494
:100AD00065460FCDC4F84100C4F84510C4F849205C
:100AE000C4F84D3084F85170002384F8523084F8F3
:100AF000703084F87130636684F86930E36684F896
:100B00006830A3676367E3672046F8BDB0A20000C2
:100B1000C0A200002DE9F04FADF5097D012840F09D
:100B200070814FF6FF73994240F06B8101F0B6FC83
:100B3000102002F095FDB54C2060102002F090FDD1
:100B40006060102002F08CFDA060102002F088FD93
:100B5000E0600223236100256561AD4C08A8AD4922
:100B60002246FFF7A3FF14AEAB4F0FCF0FC63B6873
:100B70003370DFF844934E460FCECDF86100CDF8C8
:100B80006510CDF86920CDF86D30367805968DF872
:100B90007160A24B21934FF004088DF889800126E3
:100BA0008DF888609E4B23939E4F3868CDF8720075
:100BB000BB88069397F806A0ADF876308DF878A03C
:100BC0008DF890508DF89160974B2693974B259315
:100BD000974808A9FFF708FF28A896492246FFF77B
:100BE00065FF0DF1D00EDFF8D4C2BCE80F00AEE80F
:100BF0000F00DCF800308EF80030DFF8C4E2BEE809
:100C00000F00CDF8E100CDF8E510CDF8E920CDF8E2
:100C1000ED309EF800308DF8F130874B419306237C
:100C20008DF809318DF80861844B4393844B186823
:100C3000CDF8F2009A889B79ADF8F6208DF8F8305F
:100C40008DF810518DF811617E4B46937E4B459384
:100C50007E4828A9FFF7C8FE48A87D492246FFF72D
:100C600025FFDFF860B20DF5A87EDC46BCE80F007A
:100C7000AEE80F00DCF8003007938EF80030CE4667
:100C8000BEE80F00CDF86101CDF86511CDF86921FE
:100C9000CDF86D31059B8DF87131604B61938DF806
:100CA00089818DF888615E4B63933868CDF8720155
:100CB000069BADF876318DF878A18DF890518DF8BE
:100CC0009161644B6693644B6593644848A9FFF750
:100CD0008BFE68A862492246FFF7E8FE0DF5E87E24
:100CE000BBE80F00AEE80F00079B8EF80030B9E8B4
:100CF0000F00CDF8E101CDF8E511CDF8E921CDF8EF
:100D0000ED31059B8DF8F131444B81938DF80982CB
:100D10008DF80862424B83933868CDF8F201069B48
:100D2000ADF8F6318DF8F8A18DF810528DF81162FA
:100D30004C4B86934C4B85934C4B87934C4868A9FE
:100D4000FFF752FE00954B484B4922464B4B00F0B3
:100D5000F1FE00954A484B4922464B4B00F0EAFE13
:100D600000954A484A4B196822464A4B00F0E2FE79
:100D7000DFF8549148464849224600F053FE474F59
:100D8000474E48463946324605F03CF9DFF83C917B
:100D900048464449224600F045FE48463946324618
:100DA00005F030F9DFF8289148463F49224600F027
:100DB00039FE48463946324605F024F920461321CB
:100DC0001122102300F038FD03230093CDF8048096
:100DD0003648022107220E2300F0EAFF1423009375
:100DE00005230193192302930C23039330481C21FC
:100DF0000F22092301F0A0F92E4829462A4600F0C7
:100E0000BBFF0DF5097DBDE8F08F00BF2096FF1FE9
:100E10002C97FF1FD4A20000C0A300005088FF1F22
:100E2000A888FF1FFCA200001D050000C9040000E7
:100E3000D892FF1F04A300007088FF1F4888FF1F7F
:100E40002CA30000B9050000690400004094FF1FB6
:100E500034A3000051050000E50400003896FF1F90
:100E600048A300008505000001050000E50800001A
:100E70005893FF1FB896FF1F5CA3000041060000B7
:100E80006897FF1F70A30000690600009497FF1F7A
:100E90004088FF1F9904000084A30000010F000098
:100EA0003C88FF1F98A30000ACA300004097FF1FE1
:100EB000C894FF1FD893FF1FE8A20000D4A300002E
:100EC00018A30000E8A30000D895FF1FE496FF1FB9
:100ED000F493FF1F10B50446084B0360806830B1DF
:100EE0004368A36002F0C0FBA0680028F8D100238B
:100EF000E36063602376204610BD00BF78A2000047
:100F000010B50446034A40F8242BFFF7E3FF2046C0
:100F100010BD00BF78A400008268037E23B143693E
:100F20008B4203DC026902E0002300E000239942C7
:100F300006DD2AB152680133994201DD002AF9D158
:100F40008B4205D101210176436102611046704751
:100F5000002070472DE9F04104460D4617464368CE
:100F60008B4205DC03689B6811469847BDE8F08119
:100F700029B90368DB6811469847BDE8F08108206D
:100F800002F06AFB06464FF00008C0F80080C0F887
:100F900004802046691EFFF7BFFF37604368736017
:100FA000466063680133636084F818800120BDE8FF
:100FB000F08100BF10B51446002907DB4368994251
:100FC00006DAFFF7A9FF0460012010BD002010BD64
:100FD000002010BD38B5044600291FDB4368994244
:100FE0001EDA19B90368DB69984738BD013B8B42AB
:100FF00003D103689B69984738BD0139FFF78CFF1F
:1010000043681D685A684260184602F02DFB636809
:10101000013B636000232376284638BD002038BD9D
:10102000002038BD70B50446416800291DDD00234D
:10103000037601290FDD0239FFF76EFF0546406890
:10104000066802F011FB00236B60E5606368013BFA
:101050006360304670BD8068056802F005FB0023C0
:10106000A360E3606360284670BD002070BD00BFD0
:1010700008B5FFF751FF08B1006808BD002008BDA2
:1010800038B50C46154600E06468616819B1204621
:10109000A8470028F8DD204638BD00BF2DE9F04FF5
:1010A00083B081460F464368012B4ADD00F10803F7
:1010B00001934FF0000A0093009E3AE0484629460B
:1010C0003A46FFF7DDFF8046446844B9019B9E42E3
:1010D000F2D1C9F80C00002389F8183031E04846F5
:1010E00021463A46FFF7CCFFD0F804B0C8F804A078
:1010F000C0F804A028462146B847002803DC356024
:101100002E1D6D6802E03460261D6468BDB1002CA0
:10111000F0D112E01D466B68002BFBD12E4646F83D
:1011200004BF06E01C466368002BFBD1264646F848
:1011300004BF3568002DC1D1BEE73560EBE73460F0
:10114000F1E703B0BDE8F08F08B501204FF6FF715D
:10115000FFF7E0FC08BD00BF2DE9F04F83B09F4BC7
:101160001A689F4911605A68196911601A69023238
:101170009C49114003D5013961F0010101310A4454
:101180001A61964B9A6802211160D9685A69501CFD
:101190005861002041F822001A68934951605A684A
:1011A000196951601A6902328E49114003D501391B
:1011B00061F0010101310A441A61884B9A680221E9
:1011C0005160D9685A69501C5861012041F82200C9
:1011D0001A688649916019695A6891601A690232E1
:1011E0008049114003D5013961F0010101440A44ED
:1011F0001A617A4B9A6802219160D8685A69541C26
:101200005C6140F822101A687949D16019695A68FE
:10121000D1601A6904327349114003D5013961F074
:10122000010101310A441A616C4B9A680421D160B2
:10123000D9685A69501C5861032341F822300020B4
:1012400001F070F9BE2804D0644B5B69002B28DCE8
:1012500053E0624B5B69002B53DD4FF000095F4D9B
:10126000CA46EB6853F829309E002A6852F823706A
:101270006A6852F82380AA6852F82330002B0ADDEE
:10128000544604EB080001F04DF938550134AB68C1
:101290009B599C42F5DB09F101096B699945E0DB3B
:1012A0002FE04FF0000A4D4FD346FB6853F82A3029
:1012B0004FEA83083A6852F823907A6852F823502C
:1012C000BA6852F82330002B12DD5C4619F804602E
:1012D000284601F027F9864203D02846314601F01E
:1012E00037F901340135BB6853F808309C42EDDB17
:1012F0000AF1010A7B699A45D7DB0020BE2101F083
:1013000027F93C4C20463C4900F050FD20464EF663
:10131000602100F011FD00F0B7F8642001F0AEFA92
:10132000364C20463649192200F0DEFF2046304B6D
:101330001968002201F058F8324C2C4B19884FF6EE
:10134000FF73009320464CF6CC42002300F064FE6D
:101350002046254B1988002200F0AAFE2046204B8B
:101360001988012200F0A4FE274800F0B3FC274CA6
:10137000204608210222002300F0EAFA204600F06D
:10138000A7F9234C2046234900F038FB2046224988
:1013900000F034FB2046214900F030FB2046204974
:1013A00000F02CFB1F4D28461F4900F027FB284664
:1013B0001E4900F023FB1E4E2846314600F01EFB5E
:1013C00030461C4900F01AFB2046294600F016FB67
:1013D000204600F0F7FA03B0BDE8F08F2096FF1F1B
:1013E0004488FF1F01000080A088FF1FC094FF1FDA
:1013F000A488FF1FD893FF1F2D090000C894FF1F6A
:10140000005A62024097FF1FE897FF1F2C97FF1FAB
:10141000F493FF1F3896FF1FD892FF1F4094FF1FC1
:101420005893FF1FE496FF1FB896FF1F6897FF1F92
:10143000D895FF1F9497FF1F00B583B00E4800F0AA
:101440008DFB002809DD0C4800F0B8FB0B4B9B68B6
:101450001A68C1B2D26818469047094803685B68A9
:10146000084A126801920199984710B1044800F0A7
:1014700071FC03B05DF804FBE897FF1FF493FF1FB6
:10148000D893FF1F0C98FF1F184B1A6842F4805224
:101490001A60174B174A1A60174ADA6002F1804245
:1014A0001A61164A1A60164B1B7813F0010F07BF1A
:1014B0004FF41072134B4FF40072134B1A60104B21
:1014C0001B7813F0020F4FF400720CBF0F4B104B40
:1014D0001A600B4B1B7813F0040F07BF4FF4107208
:1014E0000C4B4FF400720C4B1A6070473C80044068
:1014F00000C0024001401F000110003800001F80A2
:101500000199FF1F18B0044008C004401CB00440FB
:101510000CC0044014B0044004C00440704700BF35
:10152000704700BF08B503685B6901229847012036
:1015300008BD00BF00220271014A0260704700BF6F
:1015400020A4000008B503681B69FF21984708BD67
:1015500008B503685B690022984708BD08B50121FA
:10156000FFF7F6FF4FF47A43013B7FF4FDAF08BD70
:1015700010B582B00446104B53F8040B0090186865
:101580000190237A93429CBF03F1FF32D2B22089AB
:1015900041F20403984202AB1A440CBF12F8043C17
:1015A00012F8083C194461F07F012046C9B2FFF7E8
:1015B000CFFF02B010BD00BF10A4000008B58179B4
:1015C00041F00402827141F00C01FFF7C1FF08BD38
:1015D00038B50446012A03D9407940F0080060710B
:1015E000227261722BB1012A03D1637943F00403A3
:1015F0006371642001F042F9617911F0100F29D173
:1016000023685B6920460321022298472F4B013B48
:101610007FF4FDAF23685B692046032102229847CF
:101620004FF496552B46013B7FF4FDAF23685B6971
:1016300020460321022298472B46013B7FF4FDAF51
:1016400023685B69204602210A469847013D7FF4E2
:10165000FDAF1DE0204641F02001FFF779FF1B4B55
:10166000013B7FF4FDAF6179204641F02001FFF797
:101670006FFF4FF496552B46013B7FF4FDAF617928
:10168000204641F02001FFF763FF013D7FF4FDAFED
:101690006179204641F02001FFF75AFF4FF4F063D3
:1016A000013B7FF4FDAF0423A3712046FFF786FFC3
:1016B0002046FFF753FF0223E37120460621FFF780
:1016C00047FF2046FFF73EFF38BD00BF80320200D3
:1016D00008B5817941F00202827141F00A01FFF7F9
:1016E00037FF08BD70B472B60469464B1B78002BF7
:1016F00028D072B6434B1B7813F0010F07D0424B32
:101700001E68424D2D683540414E35601D603D4B91
:101710001B7813F0020F07D03E4B1E683B4D6D68DF
:1017200035403B4E75601D60364B1B7813F0040F3F
:1017300007D0394B1E68354DAD683540344EB56025
:101740001D6062B6354BDB68A34255D0334B344D38
:101750001D60DC6044F080441C61324C1C60437BA3
:10176000314C54F83330012483F80041037BA2420A
:101770002D4A52F8333007BF224683F880200122D9
:1017800083F800214FF49653013B7FF4FDAF234BC8
:101790004FF00042DA6259631A46D36A002BFCDA32
:1017A0001E4B9B6B4FF49653013B7FF4FDAF154BE3
:1017B0001B781BB313F0010F03D0154B1A681B4B9A
:1017C0001A60104B1B7813F0020F03D0104B5A68AD
:1017D000174B1A600B4B1B7813F0040F03D00C4B04
:1017E0009A68144B1A60437B0F4A52F83330012237
:1017F00083F8802062B603E0437BB1E7437BF3E7E5
:1018000070BC7047D897FF1F80E100E0C097FF1FB2
:10181000CC97FF1F84E100E088E100E000C00240B7
:1018200001401F0000001F80E8A4000000E100E06C
:1018300004E100E008E100E0F8B504460F46164672
:101840001D46FFF777FE044B2360E772267365732E
:10185000024B23612046F8BD40A40000000002387E
:1018600070B50446C07A012100F026FF607B01219B
:1018700000F022FF207B012100F01EFF334EE37AAF
:1018800056F83330012583F88050237B56F83330E7
:1018900083F88050637B56F8333083F88050E37AC6
:1018A00056F8333083F80051022000F0E7FF236838
:1018B0005B692046302100229847022000F0DEFFBD
:1018C000E37A56F8333083F8805023685B6920460A
:1018D00030210022984723685B692046302100228E
:1018E000984723685B69204639210022984723687E
:1018F0005B69204614210022984723685B692046D3
:1019000056210022984723685B6920466D210022FA
:10191000984723685B692046702100229847236816
:101920005B6920460C210022984723685B692046AA
:1019300006210022984723685B6920462946002239
:1019400098470A2000F09AFF70BD00BFE8A400008D
:10195000F8B504460F4616461D46FFF795FD20468E
:10196000FFF77EFF2046394632462B46FFF730FE12
:101970002046FFF7F3FD204600210A46FFF7F8FD59
:10198000F8BD00BF704700BF704700BF704700BF81
:10199000704700BF38B504461546054B0360002369
:1019A00043600C3005F0B8F82562204638BD00BF12
:1019B00060A4000008B5406810B103681B68984730
:1019C00008BD00BF70B504460B4B9860006A00214B
:1019D0000A46FFF7CDFD266A04F10C05284605F0FE
:1019E000F9F8024633685B68304629469847236811
:1019F0009B682046984770BDF493FF1F38B5044696
:101A00000D462430FEF7F4FE6C6038BD044A0260D7
:101A100000228260C26042600261426102767047C9
:101A200078A2000010B50446FFF7B4FF2046054B2E
:101A300040F8243BFFF7EAFF002384F8403063645A
:101A4000204610BD78A4000038B50446006A002185
:101A50000122FFF78DFD256A04F1240094F840105F
:101A6000FFF706FB00F10C04204605F0B3F8024630
:101A70002B685B6828462146984738BD08B5034661
:101A80002B39252946D8DFE801F013452245454585
:101A900045454545454545454545454545454545F6
:101AA00045454545454545424545454545454537F7
:101AB000426C01324264816A92FBF1F001FB102218
:101AC00083F840201A6892681846904708BD426C17
:101AD000013A4264002A02DA826A013A4264596C8D
:101AE0009A6A91FBF2F002FB101283F840201A6808
:101AF00092681846904708BD243093F84010FFF7CD
:101B0000B7FA054A906003681B68984708BD0268E9
:101B10005268904708BD00BFF493FF1F10B50446FC
:101B2000436A0BB128309847606810B103681B689E
:101B3000984710BD70B504460E461D46FFF72AFFB4
:101B40002046054B40F80C3B314604F0E5FF65624A
:101B5000049BA362204670BD90A40000036919880D
:101B600009B24269914206BF9878C0B2012070471D
:101B700003691988426909B2914216DB198809B2D2
:101B80008A4214DB9A7812F0FF0F12D099685A68D3
:101B90008A1AB2F5967F0FD89A685B68D31A322BEF
:101BA0008CBF50204FF0FF3070472D2070472B2006
:101BB00070474FF0FF30704748207047036919881D
:101BC000426909B2914204DA1B881BB243612D209D
:101BD0007047198809B28A4204DA1B881BB2436134
:101BE0002B2070479A7812F0FF0F11D000229A70C4
:101BF000036999685A688A1AB2F5967F0BD89A6871
:101C00005B68D31A332B34BF4FF0FF30502070473E
:101C10004FF0FF3070474820704700BF03691A88B3
:101C200012B2426100229A70704700BF416103699D
:101C300019800120704700BF084B1A78084B53F8F1
:101C4000323093F8003213F0FF0F064B1A8814BF9E
:101C5000013202F1FF3292B21A80704708A40000EC
:101C6000E8A40000DC97FF1F82B00E4B1A780E4BE1
:101C700053F8323093F8003213F0FF0F08D00B4BBB
:101C80001B680093009A0A4B9A6001229A7007E041
:101C9000064B1B680193019A054B5A6000229A700B
:101CA00002B070470CA40000E8A400000C98FF1FCD
:101CB000DC97FF1F10B4002202714FF47A74846025
:101CC0000273034C0460016142615DF8044B70478C
:101CD000A8A4000038B50E4B1D782846022100F05C
:101CE000EBFC0C4B1878022100F0E6FC0A4B1C7848
:101CF0002046022100F0E0FC28460849022200F0BC
:101D00001BFD20460649042200F016FD38BD00BF29
:101D100004A4000008A400000CA40000391C00006A
:101D2000691C000008B502480249FFF7C3FF08BD5F
:101D3000E897FF1FDC97FF1F416083681944C1606B
:101D4000704700BFC368C91A0029ACBF007D0020DE
:101D5000704700BF10B582B00446036903B19847CD
:101D6000044B1B680193019BA36062681344E3600A
:101D700002B010BD0C98FF1F10B483B00346094C8D
:101D80000460012404750161074909680191019902
:101D90008160986142600A44C26003B05DF8044B00
:101DA000704700BFC8A400000C98FF1F0161704776
:101DB00030B4094D45628160C2600361029B43619A
:101DC000039B83614FF6FF7303804380002383806E
:101DD000C380C36130BC70470110013808B50846A4
:101DE00003F06CFF044903F0BDFF044904F06EF8F2
:101DF00003F074FB08BD00BF0000A04000FF7F4758
:101E000008B51046194606A3D3E9002303F0BAFB30
:101E10000022054B03F0E0FC03F076FE80B208BD23
:101E200000000000E0FFEF4000001440AFF300802E
:101E3000F0B4C369002B00F08C80027A694B53F830
:101E40003230012283F80021426A674B1B78002B55
:101E500028D072B6644B1B7813F0010F07D0634B88
:101E60001D68634C24682C40624D2C601C605E4BE6
:101E70001B7813F0020F07D05F4B1D685C4C646841
:101E80002C405C4D6C601C60574B1B7813F0040FAA
:101E900007D05A4B1D68564CA4682C40554DAC6079
:101EA0001C6062B6564BDB68934208D0544B554CCD
:101EB0001C60DA6042F080421A61534A1A60504B4B
:101EC0004FF00042DA62C1F307425A631A46D36AFE
:101ED000002BFCDA4A4B9A6B4FF00042DA62C1F3F6
:101EE00007225A631A46D36A002BFCDA444B9A6BDA
:101EF0004FF00042DA62C9B259631A46D36A002B26
:101F0000FCDA3F4B9B6B384B1B78002B65D013F0F2
:101F1000010F03D0374B1A683C4B1A60324B1B78C9
:101F200013F0020F03D0334B5A68394B1A602E4B13
:101F30001B7813F0040F03D02E4B9A68354B1A60B0
:101F40008368DBB2274A52F83330012283F88020BD
:101F500045E0244A037D52F83340012384F8803061
:101F6000047E52F8344084F80031047A52F8342068
:101F700082F8003117231B4E01252022876921FAA0
:101F800003F414F0010FFFB256F8374014BF84F881
:101F9000805084F800511446013C7FF4FDAF047D6D
:101FA00056F8344084F800511446013C7FF4FDAFEC
:101FB000047D56F8344084F880501446013C7FF488
:101FC000FDAF013BB3F1FF3FD8D1027A054B53F887
:101FD0003230012283F8802001E08368B1E7F0BC51
:101FE000704700BFE8A40000D897FF1F80E100E021
:101FF000C097FF1FCC97FF1F84E100E088E100E05D
:1020000000C0024001401F0000001F8000E100E00E
:1020100004E100E008E100E02DE9F84304468846C9
:1020200091461F46007A012100F046FB1E4E237A9E
:1020300056F83330012583F88050207B294600F084
:102040003BFB237B56F8333083F88050207C2946B5
:1020500000F032FB237C56F8333083F80051E369FB
:102060008BB9207D294600F027FB207E294600F011
:1020700023FB237D56F8331081F88050217E56F8DB
:10208000312082F80051012000F0F8FB204607497A
:10209000FFF7CEFEA4F80090BDF820306380A4F8CE
:1020A0000480E780BDE8F883E8A400000100380060
:1020B00038B500EB4205AC8830F81230A14203D3AA
:1020C000994234BF0C461C4644EA024141F4C01117
:1020D000FFF7AEFE2C84204638BD00BFFFFFFFFF98
:1020E00010B50446104619460DA3D3E9002303F0AA
:1020F00049FA00220C4B03F06FFB03F005FD81B29F
:102100002046029AFFF7D4FF03F0D8FD074903F0F9
:1021100029FE074903F0DAFE03F0E0F910BD00BF25
:1021200000000000E0FFEF40000014400000A0406D
:1021300000FF7F47AFF30080F0B400F58477002400
:10214000074DC7E90045016042608360049BC3609E
:10215000059B0361069B4361079B8361F0BC70474D
:102160000000F04110B504460079012100F080FA2A
:10217000012000F083FB2079002100F079FA10BDE6
:1021800010B50446007A012100F072FA012000F037
:1021900075FB207A002100F06BFA10BD30B585B0D8
:1021A000054604A800E90E00424B1B78002B28D0FE
:1021B00072B6404B1B7813F0010F07D03E4B1968E5
:1021C0003E4A12680A403E490A601A60394B1B7841
:1021D00013F0020F07D03B4B1968384A52680A4087
:1021E00037494A601A60334B1B7813F0040F07D04D
:1021F000354B1968314A92680A4031498A601A6041
:1022000062B6324BDA68324B9A4209D02F4B314AD0
:102210001A602F4ADA6002F180421A612E4A1A606F
:102220002878002100F024FA9DF80C20274B4FF06D
:102230000041D9625A631A46D36A002BFCDA234B59
:102240009B6B9DF80D3093B104AA1344A3F10D01CB
:102250000DF103001D4A4FF0004411F80139D4621A
:102260005363D36A002BFCDA936B8142F5D1287853
:10227000012100F0FDF90F4B1B78C3B113F0010FE2
:1022800003D00F4B1A68154B1A600A4B1B7813F0DA
:10229000020F03D00A4B5A68114B1A60054B1B788A
:1022A00013F0040F03D0064B9A680E4B1A6005B06A
:1022B00030BD00BFD897FF1F80E100E0C097FF1F2F
:1022C000CC97FF1F84E100E088E100E000C00240FD
:1022D0000320033801401F0000001F8000E100E0E0
:1022E00004E100E008E100E070B58AB004460E4663
:1022F00015460078012100F0DFF92079012100F076
:10230000DBF9207A012100F0D7F9207B012100F0D0
:10231000D3F92078012100F0ABF92079002100F0F9
:10232000A7F9207A002100F0A3F9207B002100F01A
:102330009FF906FB05F6E6652046FFF713FF01202F
:1023400000F09CFA04228DF80D2002238DF80C3049
:102350008DF8043008218DF8051000218DF8061045
:1023600001218DF807108DF819208DF8183005FA25
:1023700001F38DF8103035B940238DF81130072363
:102380008DF8133005E041238DF8113005238DF8C9
:1023900013303F238DF8123004238DF825300323AA
:1023A0008DF82430FF238DF81C30204601AB0ECB76
:1023B000FFF7F4FE204604AB0ECBFFF7EFFE2046FE
:1023C0000AAD15E90E00FFF7E9FE2046FFF7D8FE3B
:1023D000012000F053FA002384F8013184F802311F
:1023E00084F800310AB070BD2DE9F04184B0064692
:1023F0001746072A43D800EB8208C8F81C10084685
:1024000003F04AF806F58473D3E9002303F0BAF821
:1024100004460D46F06D03F03FF802460B46204699
:10242000294603F0D9F904460D460022002303F0A3
:102430002FFB40B1204629460022124B02F0F0FE4D
:1024400003F03AFB07E02046294600220D4B02F03C
:10245000E5FE03F031FBC8F83C0008238DF80D3091
:102460000E378DF80C700190074B0293304604AC88
:1024700014E90E00FFF792FE3046FFF781FE04B02C
:10248000BDE8F0810000E03F0000FF3F024A137802
:1024900013F0010FFBD070470100024010B584B06B
:1024A0001B4B6C46186859689A68DB680FC4194B57
:1024B0001B7813F0020F23D0174B1B7813F0700317
:1024C0001CBF154A13708022144B1A700022033B64
:1024D0001A70332207331A700322013B1A7072B646
:1024E0006B4643F001030C4C2046984762B62378B4
:1024F00013F0700304D0237008E0013B02D105E023
:10250000074B04490A7812F0010FF6D004B010BD51
:10251000D8A4000001000240000002400700024071
:10252000410D030010B50446B0F5006F0BD2074B08
:102530001B7813F0010F01D1FFF7B0FF04F1A05495
:102540002078C0B210BD002010BD00BF01000240C5
:1025500038B504460D46B0F5006F16D20B4B1B780C
:1025600013F0010F01D1FFF799FF04F1A054237874
:10257000DBB2AB4209D0064B1B7813F070031CBFD3
:10258000034A13702570FFF781FF38BD0100024038
:1025900000000240024B1A6801321A60704700BF07
:1025A0000C98FF1F08B50D4C236813F4802F01D041
:1025B00000F0BAFA236813F4806F01D001F0C4FC74
:1025C000236813F4006F01D002F070F8236813F44D
:1025D000805FE9D002F028FBE6E700BF34800440CA
:1025E00008B5FFF7DFFF00BF1022014B1A807047CC
:1025F00000200540704700BF024A1368184410606D
:1026000018467047AC88FF1FFEE700BFEFF3138347
:10261000ABB9EFF31083ABB9EFF3058323B10F2B05
:1026200005D9094A985C03E04FF4807000E000206F
:10263000EFF311833BB1834238BF184670474FF028
:10264000FF30704700207047F0E300E0704700BFA4
:10265000044B00221A6004490A60044A10601022E8
:102660001A60704714D0034004D0034000D00340E8
:1026700021281ED80F4B53F8303093F8802212F0E7
:10268000FF0F08D019B1012283F880207047012282
:1026900083F800217047074B03EBC000436821B16A
:1026A0001A6842F003021A6070471A6822F00202A8
:1026B0001A607047E8A4000021283AD81D4B03EBAC
:1026C000C0035B68012919D0042925D0194A52F8A2
:1026D0003020002082F8800219B94FF480721A600D
:1026E0007047022903D140F203121A607047032990
:1026F0000CBF4FF4817200221A6070470D4A52F8E5
:102700003020012182F880124FF4A2721A601A68F8
:1027100022F020021A607047064A52F83020012148
:1027200082F880124FF4A2721A601A6842F02002F6
:102730001A607047E8A4000070B50D46212861D8E2
:10274000042A5FD8DFE802F00709050B03000B231A
:1027500006E00A2304E0082302E00C2300E009233A
:102760001E04294B03EBC0035C68236813F4E06F7D
:1027700002D10021FFF7A0FF244B254AC3F89C217A
:10278000244AC3F8A021244AC3F8A421234AC3F849
:10279000A821234AC3F8AC2104F14043A3F59223B6
:1027A0007C2B18D904F14042A2F594227C2A14D93A
:1027B00004F14043A3F596237C2B10D904F1404348
:1027C000A3F598237C2B0CD904F14043A3F59A235D
:1027D0007C2B08D970BD134906E0134904E0134966
:1027E00002E0134900E0134972B6236823F4702312
:1027F0002360C4F3840241F8225043F080731E43E7
:10280000266062B670BD00BFE8A400000082FF1F12
:102810001188FF1FE587FF1FB987FF1F8D87FF1FE7
:102820006187FF1FB088FF1FE888FF1F3889FF1FDF
:102830006889FF1F8889FF1F72B60C4B1B680C4A02
:1028400012680C49096862B611F0806F02D0322B11
:1028500088BF0132C3F5BB33FF330749A1FB030334
:102860009B094FF47A7000FB0230704718E000E0DB
:102870000C98FF1F04ED00E0ABAAAAAA38B50546E4
:10288000FFF7DAFF044625B938BD013D0AD004F54B
:102890007A74FFF7D1FF001BB0F57A7FF5D200F014
:1028A000E7FEF6E738BD00BF10B5264B4FF4000237
:1028B0001A604FF080721A604FF000721A604FF089
:1028C00080621A604FF000621A6000201E4B186090
:1028D0004BF6FF710433196028231C4A1360083239
:1028E0001360083213600832136008321360083234
:1028F000136008321360083213600922144C2260FE
:1029000004F58054043420600434216004342360CE
:1029100008342360143C226004F5FE240434206053
:102920000C4801600C490B6008310B600B4B1A60BE
:1029300000F05AFF4FF4C870FFF7A0FF00F074FCDE
:1029400010BD00BF08E100E0048003400C8003409C
:102950000080034008800B400C800B4000800B403F
:1029600030B40E4B1B7843F002020D4C04EBC20452
:1029700060600C48007800280CBF8824C82444EA12
:102980000141074D45F8321080F00100054A1070F2
:1029900083F00103014A137030BC70477898FF1F21
:1029A0000080FF1FF198FF1F10B4431E032B11D8A6
:1029B00072B60A4A52F8230050B14268074941F8FA
:1029C0002320074A32F813400188611A22F81310B5
:1029D00062B600E000205DF8044B70476898FF1F66
:1029E0000C9BFF1F013803280DD872B6074B53F814
:1029F00020302BB1002001305B68002BFBD100E0C0
:102A0000002062B670470020704700BFBC98FF1FCF
:102A100038B572B601231B491B4C5A1812F8012C09
:102A200012F0080F24D09A0054F832506DB9164BAA
:102A300003EBC20108304860144943F83210144BCC
:102A40001A78013A1A7062B638BD42F0010254F8A1
:102A500032506DB90C4B03EBC201083048600D4990
:102A600043F832100A4B1A78013A1A7062B638BD30
:102A70000133052BD1D162B60022054B1A7000F04C
:102A800037FC38BDF8A500000080FF1F880040001B
:102A9000E698FF1FC800400010B4431E032B37D830
:102AA000400140F010001C4A104472B61B4AD25C30
:102AB000032A09D8DFE802F019021B0508300222B8
:102AC00016E00830042213E0154A52F823201AB900
:102AD000134A42F8231003E0124A52F823205160AF
:102AE000104A42F8231062B612E0032200E00522E9
:102AF0000A4CE25401F10803436000F00803002B84
:102B00000CBF8823C8230A8843EA0243036062B6E5
:102B10005DF8044B704700BF0080FF1F2498FF1F23
:102B2000BC98FF1FCC98FF1F2DE9F84FA34CDFF88E
:102B3000E092DFF8E0A2DFF8E0B22578EDB215F020
:102B4000040F1DD09E4B1B7813F0FF0F16D09D4B2A
:102B50001B7803F0FF022BB1531EDBB2994A1370AE
:102B600003B900BE984B1B7803F0FF0233B1531E2C
:102B7000DBB2954A13700BB900F018FD04232370E3
:102B800015F0080F00F0E48299F80030DBB21D095F
:102B900040F021828D4D9E0805EBC6035A6855F81A
:102BA0003630C3F38303013B0C2B00F21082DFE8C5
:102BB00013F0CB01CB010E020E020E020E020E022A
:102BC0000E02E8010E020E020E020D00804913688B
:102BD0000B6052684A607F4A45F8362000227E49E1
:102BE0000A607A490A618A6101217C4A11709BB2AC
:102BF00040F28162934218D8B3F5D06F2ED2B3F56C
:102C0000817F00F01E8106D8802B00F0C980822BC6
:102C100000F0CC8066E140F20232934200F026815F
:102C2000B3F5A06F00F062815CE142F221029342B1
:102C300000F0868107D8B3F5086F00F0AB80B3F5DC
:102C4000106F11D04EE142F22122934200F04181F7
:102C500042F22132934200F0498143E1604B5D68CA
:102C6000002D40F0188130E1594B9A78544B1A707E
:102C7000564D05F180062B6A13F0800F03D0686A69
:102C8000083800F035FB0835B542F4D1DFF88C8107
:102C900000263746534AB05828B1456800F028FB53
:102CA0000DB12846F9E700234E4973504E4AB35000
:102CB0004E4BF05828B1456800F01AFB0DB128467C
:102CC000F9E7002349497350494AB35028F8023FB5
:102CD000484BFB5C023B032B0AD8DFE803F00206FB
:102CE00002060022434BDA5502E00122414BDA553D
:102CF00001370436102ECDD100223F4B1A7001252A
:102D00003E4EDFF81C81314F05EB080313F8013C00
:102D100006F8043B13F0080F2DD000F0C9FA48B1B3
:102D2000A90007EB451200F108035360344A47F845
:102D3000312007E0AB00002247F833202E4B1A78F1
:102D400001321A7000F0B4FA58B1AB0043F001033D
:102D500007EBC30100F108024A601E4A47F833201E
:102D600009E0AB0043F00103002247F83320224B77
:102D70001A7801321A70AA0042F00201002347F8C3
:102D8000313042F0030247F8323001351D4B9E428C
:102D9000BAD11EE20A4B1B781B4D2B700127AAE00B
:102DA000194D00232B706B700227A4E0084B9B8801
:102DB000042B37D90F22154B1A70C1E08020074031
:102DC000F098FF1F7998FF1FF298FF1F0080FF1FE8
:102DD000DC98FF1FC80040001098FF1FF198FF1FEC
:102DE000FCA500006898FF1F1498FF1FBC98FF1FE8
:102DF000CC98FF1F2498FF1FE698FF1FC4200740B0
:102E000088004000D4200740E898FF1FC0200740FA
:102E10009020074094200740982007400A9BFF1FFE
:102E2000F8A50000A04A0021117051709F4A12F8C5
:102E3000233013F0020F5CD09B4D01232B7002272F
:102E400059E09B4B9B8803F07F03042B02DC984ADC
:102E500052881AB10F22954B1A7071E0934A12F8FA
:102E6000231021F0020102F82310B2E1904B9B885D
:102E700003F07F03042B02DC8D4A52881AB10F2223
:102E80008A4B1A705CE0894A12F8231041F0020163
:102E900002F823109DE1864B5E889F88854BA3F145
:102EA0000C02114633F80C0CB04209D133F80A0C6D
:102EB000B84205D1360A032E0CBF2F7817891AE0C5
:102EC0000D690C330C32002DEBD10F22774B1A70A9
:102ED00036E0794B1A68794B1A60754B9A78784BC3
:102EE0001A7076E10F22714B1A7029E000273D46D7
:102EF00001E002276C4D6E4BDB889F4228BF1F46C6
:102F0000402F34BF3E46402628463146FFF728FD75
:102F10003544BF1B03D13F2E00F2608110E0402FEB
:102F200034BF3E46402628463146FFF719FD35445A
:102F3000BF1B01D13F2E03D9624B1D60624B1F8026
:102F400001238AF8003042E0594B198842F22103EC
:102F5000994212D15D4BD81D12F8011B03F8011FD5
:102F60008342F9D15A4B1B68862B02D10F22594B51
:102F70001A7000200146FFF7F3FC574B45F8363036
:102F800025E0504B1E68BEB14F4FB7F80080B8F136
:102F9000400F34BF4546402530462946FFF7E0FC48
:102FA000C5EB08039BB23B800BB9402D01D13544E2
:102FB00000E00025434B1D603D4B1B88B3F5A06F1F
:102FC00005D13B4B00225A709B788BF800300123CF
:102FD0008AF80030B9E0414E9F0806EBC708D8F8E0
:102FE0000420A2F10800013DEDB213F0080F47D014
:102FF00000F07EF93A4B53F825304BB35A68384904
:1030000041F8252003F10802C8F80420354A525D32
:10301000032A12D8DFE802F002060A0E0321314A21
:1030200051550AE002212F4A515506E005212D4A4B
:10303000515502E004212B4A515518F0080F0CBFDE
:103040008822C8221B8842EA034346F837307CE0D6
:10305000244B5B5D032B0BD8DFE803F07777020688
:103060000022204B5A5570E001221E4B5A556CE04D
:1030700018F0080F0CBF022203221A4B5A5564E0C5
:1030800056F837301B0C22F8083C002B55D0002393
:1030900022F8063C42F8043C134B53F825302BBB76
:1030A000114B43F8250025E0E898FF1FC02007409A
:1030B000DC98FF1F08A600000C98FF1F1C9BFF1F39
:1030C0000099FF1F1098FF1FE498FF1F139BFF1F1D
:1030D000149BFF1F7998FF1FC80040000080FF1F4E
:1030E000BC98FF1F2498FF1F6898FF1F3F4B53F8A1
:1030F000253058603D4B43F825003D4B33F8151003
:1031000032F8082C0A4423F8152000F0D1F860B1F9
:1031100000F10803C8F8043018F0080F354B364AA0
:1031200008BF134646F837300FE0002346F8373023
:10313000324B1A7801321A7007E018F0080F2D4B45
:103140002D4A08BF134646F8373008232370F4E4AD
:1031500015F0010F22D02A4902230B700022294BBF
:103160001A70294B24481860284C5C6098602848E5
:10317000D8601A619A610D20264B1870FF232648EB
:1031800003700838037018300270244A13709F22AD
:10319000234B1A7001230B70BDE8F88F15F0800FD8
:1031A00005D00D221B4B1A708022403B1A7015F07F
:1031B000020F06D0184B1A78D2B21A700222083BBE
:1031C0001A7015F0100F0ED01022164B1A70BDE8B1
:1031D000F88F00200146FFF7C3FBB1E62846002127
:1031E000FFF7BEFBACE6BDE8F88F00BF1498FF1FE9
:1031F0000C9BFF1FC800400088004000E698FF1F9E
:10320000942007407898FF1F0080FF1F2898FF1F19
:103210007C98FF1FC0200740882007408C20074073
:10322000842007408020074008B501F071FD00238D
:103230001B491A465A50C81842600833882BF9D1E6
:10324000184B1A6842F480221A60154BC3F3072109
:10325000154A1170C3F30741143211701B0E04326A
:103260001370FF23343A137008321370783A1370D6
:1032700001238432137000216C3211707C3A137078
:1032800070220A4B1A704FF40072A3F241331A6095
:10329000102203F1C04303F5C8231A7008BD00BF14
:1032A0000080FF1F348004409C20074049E400E078
:1032B00072B60D4B1A68B2FA82F30B2B02D962B6C2
:1032C000002070474FF00041D94022EA0102064930
:1032D0000A6062B6054903EBC303DB00C81800228D
:1032E000CA504260704700BF9089FF1F0084FF1FD3
:1032F00008B50F4BC31A0F4AA2FB03131B090B2B74
:1033000014D80D4A12783AB10C4A127812F0FF0F15
:1033100002D0FFF77DFB08BD72B6094A4FF00041AD
:1033200021FA03F311681943116062B608BD00BFAA
:103330000084FF1F398EE338E698FF1FF098FF1FC7
:103340009089FF1F10B5134B1B6853B9124B1B78A4
:1033500013F0FF0F18D00320FFF726FB0D4B18606A
:10336000A8B10C4B186843885A1C03441C7A038884
:103370009A4206D3FFF7BCFF0022064B1A60204694
:1033800010BD4280204610BD4FF0FF3010BD4FF001
:10339000FF3010BDFC98FF1FF098FF1F08B50D4BC4
:1033A0001B6883B90C4B1B7813F0FF0F08D0032068
:1033B000FFF7FAFA074B186028B94FF0FF3008BD45
:1033C0004FF0FF3008BD034B1B685A881344187A2E
:1033D00008BD00BFFC98FF1FF098FF1F044B9888A2
:1033E000044B1B681BB11A885B88D31A18447047BA
:1033F0000C9BFF1FFC98FF1F10B50B4B1B7813F0A5
:10340000FF0F0FD0094B186820B1FFF771FF0022A2
:10341000064B1A6003242046FFF7C6FA10B1FFF7E7
:1034200067FFF8E710BD00BFF098FF1FFC98FF1F73
:103430002DE9F84F04460122384B1A708B460029BB
:1034400065D00E46DFF8E080DFF8E0909A46344F12
:10345000D8F8003083BB99F8003013F0FF0F06D185
:1034600000222E4B1A704FF0FF30BDE8F88F4AF261
:10347000F9250420FFF7B6FA07280AD801238AF8AD
:103480000030FFF715FFC8F80000A8B900238AF83C
:103490000030013D01D03B7833B10122204B1A703E
:1034A0004FF0FF30BDE8F88F00F0E2F899F80030F7
:1034B00013F0FF0FDDD1D3E700233B70D8F80010E5
:1034C0004A88C2F14005AE4238BF354602F10803D2
:1034D0000B442A444A80761B3DB1254414F8012B45
:1034E00003F8012BAC42F9D100E025464B883F2B75
:1034F00007D940230B800420FFF7CEFA0023C8F839
:1035000000300522074B1A700EB12C46A0E70022AE
:10351000024B1A705846BDE8F88F00BFF398FF1FA2
:10352000F898FF1FF298FF1FF498FF1FF098FF1FF5
:1035300000B583B002AB03F8010D18460121FFF777
:1035400077FF03B05DF804FB10B5144B1B7813F044
:10355000FF0F21D00122124B1A70124B196851B182
:103560000024114B1C704B880B800420FFF794FA49
:103570000C4B1C600DE0FFF79BFE014630B10022B2
:10358000094B1A700420FFF787FA02E00122064B6C
:103590001A700022024B1A7010BD00BFF098FF1F76
:1035A000F398FF1FF498FF1FF298FF1F08B50E4B0A
:1035B0001B7813F0FF0F16D10C4B196841B14B88E3
:1035C0000B800420FFF768FA0022084B1A6008BD40
:1035D000FFF76EFE014618B10420FFF75DFA08BD43
:1035E0000122034B1A7008BDF398FF1FF498FF1FC8
:1035F000F298FF1FF8B506460F46144652B1002553
:1036000033681B68304617F8011B98470544013C96
:10361000F6D100E000252846F8BD00BF10B51446DD
:1036200003685B689847204610BD00BF0EB400B524
:1036300082B003AA52F8041B019203F021FB02B0EE
:103640005DF804EB03B0704708B5FDF785FDFDF7A5
:10365000F3FE00F00DF8FAE708B502F00BFD08BD27
:1036600008B502F007FD08BD08B502F00BFD08BD66
:1036700008B50F4B1B78CBB901220D4B1A70FFF721
:10368000ADFE08B101F08EFD00F0D4FB08B101F0F1
:1036900015FC00F081FF08B101F0B2FC01F04EFA18
:1036A00008B101F04FFD0022014B1A7008BD00BFA8
:1036B0000299FF1F844641EA000313F003036DD112
:1036C000403A41D351F8043B40F8043B51F8043BE5
:1036D00040F8043B51F8043B40F8043B51F8043BEC
:1036E00040F8043B51F8043B40F8043B51F8043BDC
:1036F00040F8043B51F8043B40F8043B51F8043BCC
:1037000040F8043B51F8043B40F8043B51F8043BBB
:1037100040F8043B51F8043B40F8043B51F8043BAB
:1037200040F8043B51F8043B40F8043B51F8043B9B
:1037300040F8043B51F8043B40F8043B51F8043B8B
:1037400040F8043B403ABDD2303211D351F8043B2B
:1037500040F8043B51F8043B40F8043B51F8043B6B
:1037600040F8043B51F8043B40F8043B103AEDD2DA
:103770000C3205D351F8043B40F8043B043AF9D22B
:10378000043208D0D2071CBF11F8013B00F8013BFE
:1037900001D30B8803806046704700BF082A13D30B
:1037A0008B078DD010F003038AD0C3F10403D21A23
:1037B000DB071CBF11F8013B00F8013B80D331F857
:1037C000023B20F8023B7BE7043AD9D3013A11F8D7
:1037D000013B00F8013BF9D20B7803704B78437042
:1037E0008B7883706046704760223A4B1A70E122F2
:1037F00001331A70384B1B78082B10D1012203F1CA
:10380000804303F56C331A60132334490B6001F5D0
:10381000FF2101F2FC710A60314A13601FE00A2B9C
:103820000DD139222F4B1A6013232C490B6001F55F
:10383000FF2101F2FC710A60294A13600FE00C2B92
:103840000CBF35223D22274B1A60122323490B60FF
:1038500001F5FF2101F2FC710A60214A1360224B3D
:103860001B7833B10123214A136002F50022136053
:1038700005E000231D4A136002F5002213601C4B73
:103880001B78012B06D880231A4A136002F5002208
:1038900013601AE0042B06D88423164A136002F53D
:1038A0000022136011E0082B06D88523114A13600B
:1038B00002F50022136008E0102B94BF86238723B3
:1038C0000C4A136002F50022136001220A4B1A70A1
:1038D000704700BF004007409489FF1F0CB00340B1
:1038E0000CB00B4008B003400499FF1F20B0034008
:1038F0009589FF1F24B003400399FF1F30B40023B4
:10390000B0FBF2F402FB14041D46092C94BF3034C2
:103910003734E4B2CC54B0FBF2F008B10133EFE736
:103920000D4400226A70934207DD885CCC5C8C54A5
:10393000C8540132013B9A42F7DB084630BC70475D
:10394000254B1A6842F480621A600023234A1370E0
:10395000234A1370234A1370234A1370234A1370A7
:10396000234B1B7813B1152B05D008E040F213321E
:10397000204B1A6003E040F213321F4B1A601F4BBA
:103980001B78012B02D0052B05D008E04FF45172B3
:103990001B4B1A6003E04FF451721A4B1A60C0F3CC
:1039A0004432194B1A70C0F347125A7000F01F00CE
:1039B000987204229A700221D9745A7588221A7456
:1039C0003C22DA704022114B1A704FF40052A3F2DD
:1039D00029331A60704700BF348004409499FF1F58
:1039E0000D99FF1F9C99FF1F9599FF1F0C99FF1FB1
:1039F0005099FF1F40A0044018C004409689FF1F43
:103A000044A004401CC0044000A006402DE400E097
:103A1000164B9B7803F0EC0300F00302134310F005
:103A2000040F18BF43F01003104A937000F00F0307
:103A3000042B04D11346927942F040029A710B4B49
:103A40005A7902F0EF0210F0100F18BF42F0100286
:103A5000064B5A719B7903F0EF0310F0200F18BF4B
:103A600043F01003014A9371704700BF00A0064065
:103A700010B5144B1B6813F4806F21D0124B1B78C8
:103A800013F0FF0F06D0104CFFF7F2FD237813F070
:103A9000FF0FF9D14FF400520C4B1A6000230C4A6F
:103AA000D37040F203120B490A6004310A600A4ADB
:103AB00013700A4A13700A4B1B680BB101221A706B
:103AC00010BD00BF348004400C99FF1F84E100E06A
:103AD00000A0064040A004409499FF1F0D99FF1FCD
:103AE0000899FF1F10B50446094A137813F0FF0F19
:103AF000FBD120460121FEF7DFFD20460021FEF725
:103B0000B7FD044B53F83420034B1A6010BD00BFBF
:103B10000C99FF1FE8A400009899FF1F10B40C46F1
:103B200009B140F08000184B1B78984228D0174A02
:103B3000126812F4806F21D003F07F03012B02D0B2
:103B4000052B04D006E00022114B1A6002E000228F
:103B5000104B1A60002C0CBF4422602200F07F033F
:103B6000012B02D0052B05D008E042F44072084B2F
:103B70001A6003E042F44072064B1A60024B187060
:103B80005DF8044B704700BF9689FF1F34800440E6
:103B900044A004401CC00440114B1B7898421ED026
:103BA000104A126812F4806F17D013B1152B04D08D
:103BB00006E000220C4B1A6002E000220B4B1A6058
:103BC00010B1152805D008E040F21332064B1A60F8
:103BD00003E040F21332054B1A60014B1870704736
:103BE0005099FF1F3480044040A0044018C0044096
:103BF00010B50D4B1B6813F4806F12D021280CD820
:103C00000A4C0B4B53F8303023600121FEF754FD72
:103C1000236800221A70012010BD0020034B186099
:103C200010BD002010BD00BF348004400899FF1F64
:103C3000E8A40000114B1B6813F4806F1BD01228FE
:103C400004D140F202320E4B1A600DE0142804D168
:103C500040F202320B4B1A6006E00B4B5A7B02F02B
:103C6000FE025A7300207047074B5A7B42F0010254
:103C70005A73012070470020704700BF3480044011
:103C80000CA0044014C0044000A006402DE9F041FF
:103C900007461F4B1B6813F4806F37D01D4B1B6802
:103CA0000BB101221A701C4B1C780134402C28BF28
:103CB00000241A4D1A4EDFF86C8017E0FEF7A6FCC0
:103CC00040280FDC337913F0800F0FD02B780133AD
:103CD000402B28BF002318F80320D2B2F271DBB2C8
:103CE0002B7003E0FF2801DDFFF7C2FC2B78DBB26D
:103CF0009C42E3D0FFB20B4B1F5501220A4B1A70B6
:103D0000E4B2054B1C70BC22054BDA70BDE8F081B3
:103D1000348004409899FF1F9C99FF1F9599FF1FBD
:103D200000A006401099FF1F0C99FF1F2DE9F84FC6
:103D30000746284B1B6813F4806F49D0264B1B683D
:103D40000BB101221A7007EB010B5F453DD2DFF882
:103D50009890224EDFF88C80DFF890A099F8004010
:103D60000134402C28BF00243578EDB2A54220D183
:103D7000BC2388F80330FEF749FC402811DC98F892
:103D8000043013F0800F10D033780133402B28BF5C
:103D900000231AF80320D2B288F80720DBB2337070
:103DA00003E0FF2801DDFFF763FC3378DBB29D42BF
:103DB000E1D017F8013B0AF804300122084B1A70D1
:103DC000E4B289F800405F45C8D1BC22054BDA70E7
:103DD000BDE8F88F348004409899FF1F9599FF1F24
:103DE0000C99FF1F00A006409C99FF1F1099FF1F10
:103DF00010B5064B1B7813F0FF0F06D0034CFFF7EE
:103E000037FC237813F0FF0FF9D110BD0C99FF1F79
:103E1000064B1B78DBB2064A1278D2B293422CBF13
:103E20003F3202F1FF32D01A704700BF9C99FF1F4A
:103E30009599FF1F054B1878C0B2054B1B78DBB274
:103E4000984238BF4030C01A704700BF9499FF1F96
:103E50000D99FF1F10B4184B1A78D2B2174B1B786C
:103E6000DBB29A4218D001333F2B18D81449C85CF2
:103E7000C0B2DCB211490C7012490968C9B19A424A
:103E800003D300E00023D31A01E04032D31A1A2BE7
:103E90000FDC00230B700CE04FF0FF3009E0084B03
:103EA0001878C0B20021054B1970064B196800291B
:103EB000E8D15DF8044B70479499FF1F0D99FF1FDF
:103EC0005499FF1F0899FF1F094B1A78D2B2094B6A
:103ED0001B78DBB29A4207D00133402B28BF002366
:103EE000054AD05CC0B270474FF0FF30704700BF4A
:103EF0009499FF1F0D99FF1F5499FF1F0D4B1B68CD
:103F000013F4806F14D00C4BDA7802F0CB02DA7025
:103F100040225A74DA7842F03402DA70074B1A7889
:103F2000D2B2074B1A70074B1B680BB100221A70F4
:103F3000704700BF3480044000A006400D99FF1F69
:103F40009499FF1F0899FF1F70B43D4B1B7913F024
:103F5000300F33D072B63A4B9B7D03F0FF022BB982
:103F6000374BDA7940225A7462B627E062B6354B95
:103F70001978C9B2344B1C78E4B2314D334EEB7929
:103F8000D8B24B1C402B28BF0023A3421CBFF054C7
:103F90001946531E13F0FF02F1D1CAB2294B1A7011
:103FA0002B4B1B6853B1A1422EBFC4EB0101C4F1DE
:103FB000400409192729C4BF01221A70204BDA785E
:103FC000D2B212F0800F27D01B7913F0800F23D0CC
:103FD000204B1C78E4B2204B1B78DBB29C4210D003
:103FE00017491E4D01E0A3420BD00133402B28BFDF
:103FF00000230879E85CC0B2C871087DC0B2072808
:10400000F1D9DBB214490B700D4B1B7913F0800F03
:1040100002D07C210A4BD97012F0400F0ED0084B11
:104020001B7913F0400F09D000220D4B1A700D4B75
:104030001B6803B11A703C22014BDA7070BC7047E8
:1040400000A006409499FF1F0D99FF1F5499FF1F70
:104050000899FF1F9C99FF1F9599FF1F1099FF1F3B
:104060000C99FF1F9899FF1F254B1A6842F40062B4
:104070001A600023234A1370234A1370234A1370D3
:10408000234A1370234A1370234B1B78092B02D049
:104090001A2B05D008E040F21332204B1A6003E0DF
:1040A00040F213321E4B1A601E4B1B780A2B02D0B3
:1040B0001F2B05D008E04FF451721B4B1A6003E030
:1040C0004FF45172194B1A60C0F34432184B1A70F6
:1040D000C0F347125A7000F01F00987204229A70C1
:1040E0000221D9745A7588221A743C22DA7040224F
:1040F000104B1A704FF40042A3F22B331A60704732
:1041000034800440109AFF1FA599FF1F189AFF1FC3
:10411000119AFF1FA499FF1F9789FF1F0CB004403D
:1041200004D004409889FF1F10B0044000D0044020
:1041300000B006402FE400E0164B9B7803F0EC0340
:1041400000F00302134310F0040F18BF43F01003F4
:10415000104A937000F00F03042B04D11346927998
:1041600042F040029A710B4B5A7902F0EF0210F0C4
:10417000100F18BF42F01002064B5A719B7903F0E2
:10418000EF0310F0200F18BF43F01003014A9371A2
:10419000704700BF00B0064010B5224B1B6813F4F7
:1041A000006F3ED0204B1B7813F0FF0F06D01E4C43
:1041B000FFF75EFA237813F0FF0FF9D14FF40042B6
:1041C0001A4B1A6000221A4BDA701A4B1B78092B13
:1041D00002D01A2B05D008E040F20312164B1A60E9
:1041E00003E040F20312154B1A60154B1B7803F0E5
:1041F0007F030A2B02D01F2B05D008E040F20312E8
:10420000104B1A6003E040F203120F4B1A600023B8
:104210000E4A13700E4A13700E4B1B680BB101222D
:104220001A7010BD34800440A499FF1F84E100E09F
:1042300000B006409789FF1F0CB0044004D0044032
:104240009889FF1F10B0044000D00440109AFF1F4F
:10425000A599FF1FA099FF1F10B50446094A1378BE
:1042600013F0FF0FFBD120460121FEF725FA20466F
:104270000021FEF7FDF9044B53F83420034B1A607C
:1042800010BD00BFA499FF1FE8A40000149AFF1FEF
:1042900010B40C4609B140F08000184B1B789842CE
:1042A00028D0174A126812F4006F21D003F07F0360
:1042B0000A2B02D01F2B04D006E00022114B1A60FB
:1042C00002E00022104B1A60002C0CBF4422602236
:1042D00000F07F030A2B02D01F2B05D008E042F428
:1042E0004072084B1A6003E042F44072064B1A60B9
:1042F000024B18705DF8044B704700BF9889FF1F90
:104300003480044010B0044000D00440124B1B78AD
:10431000984220D0114A126812F4006F19D0092B6C
:1043200002D01A2B04D006E000220D4B1A6002E0E6
:1043300000220C4B1A60092802D01A2805D008E088
:1043400040F21332064B1A6003E040F21332054B81
:104350001A60014B187070479789FF1F3480044022
:104360000CB0044004D0044010B50D4B1B6813F48E
:10437000006F12D021280CD80A4C0B4B53F8303068
:1043800023600121FEF798F9236800221A700120AA
:1043900010BD0020034B186010BD002010BD00BFF1
:1043A00034800440A099FF1FE8A400000D4B1B6857
:1043B00013F4006F13D017280AD140F202320A4BCF
:1043C0001A600A4B5A7B42F001025A73012070476F
:1043D000064B5A7B02F0FE025A7300207047002001
:1043E000704700BF3480044008B0044000B006406D
:1043F0002DE9F04107461F4B1B6813F4006F37D0BF
:104400001D4B1B680BB101221A701C4B1C78013428
:10441000282C28BF00241A4D1A4EDFF86C8017E0B4
:10442000FEF7F4F840280FDC337913F0800F0FD03B
:104430002B780133282B28BF002318F80320D2B291
:10444000F271DBB22B7003E0FF2801DDFFF710F9FA
:104450002B78DBB29C42E3D0FFB20B4B1F550122FD
:104460000A4B1A70E4B2054B1C70BC22054BDA7083
:10447000BDE8F08134800440149AFF1F189AFF1F92
:10448000119AFF1F00B00640A899FF1FA499FF1FB3
:104490002DE9F84F0746284B1B6813F4006F49D0ED
:1044A000264B1B680BB101221A7007EB010B5F450D
:1044B0003DD2DFF89890224EDFF88C80DFF890A094
:1044C00099F800400134282C28BF00243578EDB23B
:1044D000A54220D1BC2388F80330FEF797F8402886
:1044E00011DC98F8043013F0800F10D033780133CA
:1044F000282B28BF00231AF80320D2B288F80720FF
:10450000DBB2337003E0FF2801DDFFF7B1F8337849
:10451000DBB29D42E1D017F8013B0AF804300122DA
:10452000084B1A70E4B289F800405F45C8D1BC223C
:10453000054BDA70BDE8F88F34800440149AFF1FF1
:10454000119AFF1FA499FF1F00B00640189AFF1F81
:10455000A899FF1F10B5064B1B7813F0FF0F06D06C
:10456000034CFFF785F8237813F0FF0FF9D110BD46
:10457000A499FF1F064B1B78DBB2064A1278D2B211
:1045800093422CBF273202F1FF32D01A704700BF8E
:10459000189AFF1F119AFF1F054B1878C0B2054BE0
:1045A0001B78DBB2984238BF4030C01A704700BF5A
:1045B000109AFF1FA599FF1F10B4184B1A78D2B29A
:1045C000174B1B78DBB29A4218D001333F2B18D817
:1045D0001449C85CC0B2DCB211490C7012490968B8
:1045E000C9B19A4203D300E00023D31A01E040325C
:1045F000D31A1A2B0FDC00230B700CE04FF0FF30A6
:1046000009E0084B1878C0B20021054B1970064B21
:1046100019680029E8D15DF8044B7047109AFF1F14
:10462000A599FF1FD099FF1FA099FF1F094B1A786A
:10463000D2B2094B1B78DBB29A4207D00133402B30
:1046400028BF0023054AD05CC0B270474FF0FF304E
:10465000704700BF109AFF1FA599FF1FD099FF1F39
:104660000D4B1B6813F4006F14D00C4BDA7802F07A
:10467000CB02DA7040225A74DA7842F03402DA70EF
:10468000074B1A78D2B2074B1A70074B1B680BB155
:1046900000221A70704700BF3480044000B006400A
:1046A000A599FF1F109AFF1FA099FF1F70B43D4BE3
:1046B0001B7913F0300F33D072B63A4B9B7D03F069
:1046C000FF022BB9374BDA7940225A7462B627E0E1
:1046D00062B6354B1978C9B2344B1C78E4B2314D0F
:1046E000334EEB79D8B24B1C402B28BF0023A3429A
:1046F0001CBFF0541946531E13F0FF02F1D1CAB289
:10470000294B1A702B4B1B6853B1A1422EBFC4EB2F
:104710000101C4F1400409192729C4BF01221A70FC
:10472000204BDA78D2B212F0800F27D01B7913F029
:10473000800F23D0204B1C78E4B2204B1B78DBB2D7
:104740009C4210D017491E4D01E0A3420BD001330B
:10475000282B28BF00230879E85CC0B2C871087D07
:10476000C0B20728F1D9DBB214490B700D4B1B798D
:1047700013F0800F02D07C210A4BD97012F0400F49
:104780000ED0084B1B7913F0400F09D000220D4BBF
:104790001A700D4B1B6803B11A703C22014BDA7082
:1047A00070BC704700B00640109AFF1FA599FF1F0C
:1047B000D099FF1FA099FF1F189AFF1F119AFF1F82
:1047C000A899FF1FA499FF1F149AFF1F174B1A687F
:1047D00042F480521A600023154A1370154A137070
:1047E000154A1370154A1370154A137040F21331AD
:1047F000144A11604FF4517104321160C0F3443116
:10480000114A1170C0F34711517000F01F009072EF
:10481000937013742C23D37040220C4B1A704FF4F6
:104820000032A3F22D331A60704700BF3480044079
:104830008C9AFF1F219AFF1F949AFF1F8D9AFF1FCA
:10484000209AFF1F08C0044000C0064031E400E089
:10485000164B9B7803F0EC0300F00302134310F0B7
:10486000040F18BF43F01003104A937000F00F03B9
:10487000042B04D11346927942F040029A710B4BFB
:104880005A7902F0EF0210F0100F18BF42F0100238
:10489000064B5A719B7903F0EF0310F0200F18BFFD
:1048A00043F01003014A9371704700BF00C00640F7
:1048B00010B5144B1B6813F4805F21D0124B1B788A
:1048C00013F0FF0F06D0104CFEF7D2FE237813F042
:1048D000FF0FF9D14FF400320C4B1A6000230C4A41
:1048E000D37040F203120B490A6004310A600A4A8D
:1048F00013700A4A13700A4B1B680BB101221A701D
:1049000010BD00BF34800440209AFF1F84E100E006
:1049100000C0064008C004408C9AFF1F219AFF1F68
:104920001C9AFF1F10B50446094A137813F0FF0FB5
:10493000FBD120460121FDF7BFFE20460021FDF7F7
:1049400097FE044B53F83420034B1A6010BD00BF90
:10495000209AFF1FE8A40000909AFF1F10B40C4695
:1049600009B140F08000104B1B78984219D00F4AD3
:10497000126812F4805F12D003F07F03082B02D17B
:1049800000220B4B1A60002C0CBF4422602200F066
:104990007F03082B03D142F44072054B1A60024B8F
:1049A00018705DF8044B70479989FF1F34800440EC
:1049B0000CC00440704700BF10B50D4B1B6813F4CA
:1049C000805F12D021280CD80A4C0B4B53F83030A2
:1049D00023600121FDF770FE236800221A70012078
:1049E00010BD0020034B186010BD002010BD00BF9B
:1049F000348004401C9AFF1FE8A400000D4B1B6884
:104A000013F4805F13D00E280AD140F202320A4B11
:104A10001A600A4B5A7B42F001025A730120704718
:104A2000064B5A7B02F0FE025A73002070470020AA
:104A3000704700BF3480044004C0044000C00640FA
:104A40002DE9F04107461F4B1B6813F4805F37D0F8
:104A50001D4B1B680BB101221A701C4B1C780134D2
:104A6000282C28BF00241A4D1A4EDFF86C8017E05E
:104A7000FDF7CCFD40280FDC337913F0800F0FD009
:104A80002B780133282B28BF002318F80320D2B23B
:104A9000F271DBB22B7003E0FF2801DDFEF7E8FDC9
:104AA0002B78DBB29C42E3D0FFB20B4B1F550122A7
:104AB0000A4B1A70E4B2054B1C70AC22054BDA703D
:104AC000BDE8F08134800440909AFF1F949AFF1F44
:104AD0008D9AFF1F00C00640249AFF1F209AFF1FD7
:104AE00038B505460C4629B115F8010BFFF7A8FFAC
:104AF000013CF9D138BD00BF10B5064B1B7813F04F
:104B0000FF0F06D0034CFEF7B3FD237813F0FF0F21
:104B1000F9D110BD209AFF1F064B1B78DBB2064A65
:104B20001278D2B293422CBF273202F1FF32D01A50
:104B3000704700BF949AFF1F8D9AFF1F054B18788E
:104B4000C0B2054B1B78DBB2984238BF4030C01A68
:104B5000704700BF8C9AFF1F219AFF1F10B4184B9B
:104B60001A78D2B2174B1B78DBB29A4218D00133B5
:104B70003F2B18D81449C85CC0B2DCB211490C7084
:104B800012490968C9B19A4203D300E00023D31A3D
:104B900001E04032D31A1A2B0FDC00230B700CE01B
:104BA0004FF0FF3009E0084B1878C0B20021054BE8
:104BB0001970064B19680029E8D15DF8044B70475D
:104BC0008C9AFF1F219AFF1F4C9AFF1F1C9AFF1FF0
:104BD000094B1A78D2B2094B1B78DBB29A4207D044
:104BE0000133402B28BF0023054AD05CC0B2704778
:104BF0004FF0FF30704700BF8C9AFF1F219AFF1FB4
:104C00004C9AFF1F054B1A78D2B2054B1A70054B10
:104C10001B680BB100221A70704700BF219AFF1F5A
:104C20008C9AFF1F1C9AFF1F2F4B1B7913F0200F2C
:104C300023D02D4BDB79D9B22C4B1B780133402B81
:104C400028BF00232A4A1278D2B29A4204D0294AB5
:104C5000D154D9B2254A1170274A116869B1274A3F
:104C60001278D2B293422EBFC2EB0303C2F14002CC
:104C70009B18272BC4BF01230B701B4BDB78DBB2C7
:104C800013F0800F1CD0184A127912F0800F17D041
:104C90001B4A1178C9B2194A1278D2B2914203D193
:104CA0006C21114AD1700BE00132282A28BF002262
:104CB0001449885CC0B20C49C871D2B20F490A705D
:104CC00013F0400F0ED0084B1B7913F0400F09D0A2
:104CD00000220D4B1A700D4B1B6803B11A702C2269
:104CE000014BDA70704700BF00C006408C9AFF1F6E
:104CF000219AFF1F4C9AFF1F1C9AFF1F8D9AFF1FBE
:104D0000949AFF1F249AFF1F209AFF1F909AFF1F5B
:104D100000B585B072B61B4B70221A7041211A4A39
:104D200011700F21013A117080221A701A461378FF
:104D300013F0800FFBD0154B186862B6144B9842E5
:104D40009CBF00EB8000400001A90A22FEF7D6FDBF
:104D50009DF804307BB908E001A9595C31B191801C
:104D6000023201330A2BF7D100E0002301335B004C
:104D7000084A137003E0074A53800123ECE705B0AB
:104D80005DF804FB000002400700024008000240FA
:104D90007F969800288AFF1F08B503681B68C9B270
:104DA000984708BD08B503681B68C9B2984708BD95
:104DB00008B503681B68C9B2984708BD08B5036801
:104DC0001B68C9B2984708BD08B54B0803F13760A6
:104DD00000F5D830B0FBF1F0FEF7B2FD08BD00BF22
:104DE00010B514464B0803F1376000F5D830B0FB1E
:104DF000F1F0FEF7A5FD2046FEF70AFE10BD00BF4C
:104E000008B5FEF735FE08BD08B50846FEF76AFE90
:104E100008BD00BF08B50846FEF7BEFE08BD00BFCE
:104E200008B508461146FEF779FE08BD08B50846E4
:104E3000FEF7DEFE003018BF012008BD08B50846A9
:104E4000FEF7F8FE003018BF012008BD08B5FEF7D8
:104E5000F1FF08BD08B5FFF737F808BD08B5FEF744
:104E6000F9FF08BD08B5FEF7C3FF08BD08B5FFF799
:104E700045F808BD08B5FEF7CBFF08BD08B50846E4
:104E8000FEF704FF012008BD08B50846FEF7FEFE48
:104E9000012008BD10B5144608461146FEF746FF2E
:104EA000204610BD38B50D46084601F093FE044675
:104EB00028462146FEF73AFF204638BD704700BF1E
:104EC000044B00221A714FF47A7199601A73024AE6
:104ED0001A607047989AFF1F58A6000008B503682B
:104EE0001B68C9B2984708BD08B503681B68C9B2FA
:104EF000984708BD08B503681B68C9B2984708BD44
:104F000008B503681B68C9B2984708BD08B54B08C7
:104F100003F1376000F5D830B0FBF1F0FFF7A4F8EB
:104F200008BD00BF10B514464B0803F1376000F50B
:104F3000D830B0FBF1F0FFF797F82046FFF7FCF808
:104F400010BD00BF08B5FFF727F908BD08B5084632
:104F5000FFF782F908BD00BF08B50846FFF7D6F98C
:104F600008BD00BF08B508461146FFF791F908BD16
:104F700008B50846FFF7F8F9003018BF012008BD52
:104F800008B50846FFF712FA003018BF012008BD27
:104F900008B5FFF701FB08BD08B5FFF747FB08BDE3
:104FA00008B5FFF709FB08BD08B5FFF7D3FA08BD40
:104FB00008B5FFF755FB08BD08B5FFF7DBFA08BDDC
:104FC00008B50846FFF714FA012008BD08B50846E1
:104FD000FFF70EFA012008BD10B514460846114629
:104FE000FFF756FA204610BD38B50D46084601F0C9
:104FF000F1FD044628462146FFF74AFA204638BD0F
:10500000704700BF044B00221A714FF47A71996007
:105010001A73024A1A607047A89AFF1FB8A60000C8
:1050200008B503681B68C9B2984708BD08B503688E
:105030001B68C9B2984708BD08B503681B68C9B2A8
:10504000984708BD08B503681B68C9B2984708BDF2
:1050500008B54B0803F1B76000F55840B0FBF1F01C
:10506000FFF7B4FB08BD00BF10B514464B0803F1B1
:10507000B76000F55840B0FBF1F0FFF7A7FB204602
:10508000FFF7E6FB10BD00BF08B5FFF711FC08BD38
:1050900008B50846FFF746FC08BD00BF08B508463E
:1050A000FFF788FC08BD00BF08B508461146FFF7AA
:1050B00055FC08BD08B50846FFF77EFC003018BF58
:1050C000012008BD08B50846FFF798FC003018BF5E
:1050D000012008BD08B5FFF731FD08BD08B5FFF791
:1050E00077FD08BD08B5FFF739FD08BD08B5FFF726
:1050F00003FD08BD08B5FFF785FD08BD08B5FFF73E
:105100000BFD08BD08B50846FFF79AFC012008BD55
:1051100008B50846FFF794FC012008BD10B51446F9
:1051200008461146FFF7DCFC204610BD38B50D4699
:10513000084601F04FFD044628462146FFF7D0FC03
:10514000204638BD704700BF044B00221A714FF44F
:105150007A7199601A73024A1A607047B89AFF1FF1
:1051600018A7000008B5FEF739F908BD08B5FEF725
:10517000E9F808BD08B5FEF711F908BD08B5FEF756
:10518000E3F908BD08B5FEF737F908BD08B50846CC
:10519000FEF7CEF908BD00BF08B508461146FEF778
:1051A00047F908BD704700BF044B00221A714FF445
:1051B0007A7199601A73024A1A607047C89AFF1F81
:1051C00078A7000031F0004310B408D00F4AA3F5CF
:1051D000801494420AD804205DF8044B70470028DC
:1051E0000CBF022003205DF8044B7047B3F5801F0D
:1051F00001D20320F7E7064A934201D00020F2E7EC
:10520000D0F1010038BF0020EDE700BFFFFFDF7FD6
:105210000000F07F81F0004102E000BF83F0004316
:1052200030B54FEA41044FEA430594EA050F08BF41
:1052300090EA020F1FBF54EA000C55EA020C7FEA05
:10524000645C7FEA655C00F0E2804FEA5454D4EB82
:105250005555B8BF6D420CDD2C4480EA020281EA4C
:10526000030382EA000083EA010180EA020281EA84
:105270000303362D88BF30BD11F0004F4FEA0131D6
:105280004FF4801C4CEA113102D0404261EB4101E5
:1052900013F0004F4FEA03334CEA133302D052426B
:1052A00063EB430394EA050F00F0A780A4F1010427
:1052B000D5F1200E0DDB02FA0EFC22FA05F2801861
:1052C00041F1000103FA0EF2801843FA05F3594147
:1052D0000EE0A5F120050EF1200E012A03FA0EFCC6
:1052E00028BF4CF0020C43FA05F3C01851EBE371F0
:1052F00001F0004507D54FF0000EDCF1000C7EEB0D
:1053000000006EEB0101B1F5801F1BD3B1F5001F4A
:105310000CD349085FEA30004FEA3C0C04F1010469
:105320004FEA445212F5800F80F09A80BCF1004F92
:1053300008BF5FEA500C50F1000041EB045141EA14
:10534000050130BD5FEA4C0C404141EB010111F415
:10535000801FA4F10104E9D191F0000F04BF0146C0
:105360000020B1FA81F308BF2033A3F10B03B3F19E
:1053700020020CDA0C3208DD02F1140CC2F10C022E
:1053800001FA0CF021FA02F10CE002F11402D8BF8C
:10539000C2F1200C01FA02F120FA0CFCDCBF41EA58
:1053A0000C019040E41AA2BF01EB0451294330BD27
:1053B0006FEA04041F3C1CDA0C340EDC04F1140404
:1053C000C4F1200220FA04F001FA02F340EA0300DB
:1053D00021FA04F345EA030130BDC4F10C04C4F121
:1053E000200220FA02F001FA04F340EA0300294601
:1053F00030BD21FA04F0294630BD94F0000F83F44B
:10540000801306BF81F480110134013D4EE77FEA2D
:10541000645C18BF7FEA655C29D094EA050F08BF79
:1054200090EA020F05D054EA000C04BF194610465A
:1054300030BD91EA030F1EBF0021002030BD5FEA9E
:10544000545C05D14000494128BF41F0004130BDC6
:1054500014F580043CBF01F5801130BD01F000451A
:1054600045F0FE4141F470014FF0000030BD7FEA8D
:10547000645C1ABF194610467FEA655C1CBF0B4688
:10548000024650EA013406BF52EA033591EA030F9F
:1054900041F4002130BD00BF90F0000F04BF002197
:1054A000704730B54FF4806404F132044FF00005CA
:1054B0004FF0000150E700BF90F0000F04BF002143
:1054C000704730B54FF4806404F1320410F00045A9
:1054D00048BF40424FF000013EE700BF42004FEAA4
:1054E000E2014FEA31014FEA02701FBF12F07F4321
:1054F00093F07F4F81F06051704792F0000F14BF1E
:1055000093F07F4F704730B54FF4607401F0004561
:1055100021F0004120E700BF50EA010208BF7047B8
:1055200030B54FF000050AE050EA010208BF7047AD
:1055300030B511F0004502D5404261EB41014FF416
:10554000806404F132045FEA915C3FF4DCAE4FF01A
:1055500003025FEADC0C18BF03325FEADC0C18BF01
:10556000033202EBDC02C2F1200300FA03FC20FA52
:1055700002F001FA03FE40EA0E0021FA02F114449F
:10558000C1E600BF70B54FF0FF0C4CF4E06C1CEAB4
:1055900011541DBF1CEA135594EA0C0F95EA0C0F29
:1055A00000F0DEF82C4481EA030621EA4C5123EA9C
:1055B0004C5350EA013518BF52EA033541F48011CB
:1055C00043F4801338D0A0FB02CE4FF00005E1FB7E
:1055D00002E506F00042E0FB03E54FF00006E1FBC8
:1055E00003569CF0000F18BF4EF0010EA4F1FF040B
:1055F000B6F5007F64F5407404D25FEA4E0E6D414B
:1056000046EB060642EAC62141EA55514FEAC5205B
:1056100040EA5E504FEACE2EB4F1FD0C88BFBCF5D7
:10562000E06F1ED8BEF1004F08BF5FEA500E50F188
:10563000000041EB045170BD06F0004646EA01014E
:1056400040EA020081EA0301B4EB5C04C2BFD4EB80
:105650000C0541EA045170BD41F480114FF0000E79
:10566000013C00F3AB8014F1360FDEBF002001F0E7
:10567000004170BDC4F10004203C35DA0C341BDC61
:1056800004F11404C4F1200500FA05F320FA04F033
:1056900001FA05F240EA020001F0004221F0004167
:1056A00010EBD37021FA04F642EB06015EEA430EDA
:1056B00008BF20EAD37070BDC4F10C04C4F120050A
:1056C00000FA04F320FA05F001FA04F240EA0200BD
:1056D00001F0004110EBD37041F100015EEA430E8E
:1056E00008BF20EAD37070BDC4F1200500FA05F2AE
:1056F0004EEA020E20FA04F301FA05F243EA02032D
:1057000021FA04F001F0004121FA04F220EA02003B
:1057100000EBD3705EEA430E08BF20EAD37070BD81
:1057200094F0000F0FD101F00046400041EB010161
:1057300011F4801F08BF013CF7D041EA060195F043
:10574000000F18BF704703F00046520043EB0303FD
:1057500013F4801F08BF013DF7D043EA06037047EA
:1057600094EA0C0F0CEA135518BF95EA0C0F0CD0F5
:1057700050EA410618BF52EA4306D1D181EA03013B
:1057800001F000414FF0000070BD50EA410606BF35
:105790001046194652EA430619D094EA0C0F02D17A
:1057A00050EA013613D195EA0C0F05D152EA0336BF
:1057B0001CBF104619460AD181EA030101F00041DD
:1057C00041F0FE4141F470014FF0000070BD41F026
:1057D000FE4141F4780170BD70B54FF0FF0C4CF400
:1057E000E06C1CEA11541DBF1CEA135594EA0C0F1F
:1057F00095EA0C0F00F0A7F8A4EB050481EA030E6C
:1058000052EA03354FEA013100F088804FEA033352
:105810004FF0805545EA131343EA12634FEA022220
:1058200045EA111545EA10654FEA00260EF00041E1
:105830009D4208BF964244F1FD0404F5407402D233
:105840005B084FEA3202B61A65EB03055B084FEAC4
:1058500032024FF480104FF4002CB6EB020E75EBC1
:10586000030E22BFB61A754640EA0C005B084FEAE9
:105870003202B6EB020E75EB030E22BFB61A754666
:1058800040EA5C005B084FEA3202B6EB020E75EBB1
:10589000030E22BFB61A754640EA9C005B084FEA29
:1058A0003202B6EB020E75EB030E22BFB61A754636
:1058B00040EADC0055EA060E18D04FEA051545EA25
:1058C00016754FEA06164FEAC30343EA52734FEACE
:1058D000C2025FEA1C1CC0D111F4801F0BD141EA47
:1058E00000014FF000004FF0004CB6E711F4801FAC
:1058F00004BF01430020B4F1FD0C88BFBCF5E06F8C
:105900003FF6AFAEB5EB030C04BFB6EB020C5FEA9B
:10591000500C50F1000041EB045170BD0EF0004EF0
:105920004EEA113114EB5C04C2BFD4EB0C0541EA22
:10593000045170BD41F480114FF0000E013C90E61F
:1059400045EA060E8DE60CEA135594EA0C0F08BFE3
:1059500095EA0C0F3FF43BAF94EA0C0F0AD150EAE2
:1059600001347FF434AF95EA0C0F7FF425AF104675
:1059700019462CE795EA0C0F06D152EA03353FF49D
:10598000FDAE1046194622E750EA410618BF52EA1A
:1059900043067FF4C5AE50EA41047FF40DAF52EAEE
:1059A00043057FF4EBAE12E74FF0FF3C06E000BF8B
:1059B0004FF0010C02E000BF4FF0010C4DF804CD98
:1059C0004FEA410C7FEA6C5C4FEA430C18BF7FEA58
:1059D0006C5C1BD001B050EA410C0CBF52EA430C86
:1059E00091EA030F02BF90EA020F0020704710F106
:1059F000000F91EA030F58BF994208BF90422CBF95
:105A0000D8176FEAE37040F0010070474FEA410C8D
:105A10007FEA6C5C02D150EA013C07D14FEA430CAB
:105A20007FEA6C5CD6D152EA033CD3D05DF8040B1C
:105A3000704700BF8446104662468C46194663464E
:105A400000E000BF01B5FFF7B7FF002848BF10F125
:105A5000000F01BD4DF808EDFFF7F4FF0CBF01206A
:105A600000205DF808FB00BF4DF808EDFFF7EAFFE6
:105A700034BF012000205DF808FB00BF4DF808EDA1
:105A8000FFF7E0FF94BF012000205DF808FB00BF96
:105A90004DF808EDFFF7CEFF94BF012000205DF820
:105AA00008FB00BF4DF808EDFFF7C4FF34BF01202D
:105AB00000205DF808FB00BF4FEA410212F500121A
:105AC00015D211D56FF47873B3EB625212D94FEA45
:105AD000C12343F0004343EA505311F0004F23FA2F
